:100000001AC0B1C0B0C0AFC0AEC0ADC0ACC069C056
:10001000AAC0A9C0A8C0A7C0A6C0A5C0A4C0A3C0AC
:10002000A2C0A1C0A0C09FC09EC00061006C000122
:1000300068006000618011241FBECFEDCDBFEAE2F1
:10004000F0E040E017C0B591A5913591259105915B
:1000500007FD0CC095918591EF01F92FE82F0590D0
:100060000D92A217B307D9F7FE0104C01D92A21783
:10007000B307E1F7E633F40731F703D000C0F89493
:02008000FFCFB0
:1000820055D020E04AE0A1E6B0E087EE93E0019788
:10009200F1F700C0000082B38F7A82BB2F5F322F4C
:1000A200317020FF05C080916000642F4BD005C0E5
:1000B20080916000642F46D0892F8A3038F4E82F6F
:1000C200F0E0EF59FF4F808188BB04C01A968C91F3
:1000D2001A9788BB332311F0949AD7CF969AD5CF2B
:1000E2001F920F920FB60F9211242F933F934F93AB
:1000F2005F936F937F938F939F93AF93BF93EF938E
:10010200FF938CB18093600029D0FF91EF91BF9152
:10011200AF919F918F917F916F915F914F913F919D
:0C0122002F910F900FBE0F901F901895AA
:10012E008FEC89B912B888E98AB98FEF87BB81B392
:08013E00826581BB78940895ED
:10014600991B79E004C0991F961708F0961B881F23
:080156007A95C9F78095089520
:08015E005D9BFECF8CB90895F2
:020166004CCF7C
:0B016800039F250D9949411F0109FD6F
:00000001FF
